:100000000C946E000C9496000C9496000C94960040
:100010000C9496000C9496000C9496000C94960008
:100020000C9496000C9496000C9496000C949600F8
:100030000C9496000C9496000C9496000C949600E8
:100040000C94F4100C9496000C94010F0C94330F44
:100050000C9496000C9496000C9496000C949600C8
:100060000C94DF070C9496000A0116011C01240170
:100070002D0133013B01430149010000000800024A
:10008000010000030407000000000000000001025E
:100090000408102040800102040810200102040816
:1000A00010200404040404040404020202020202F4
:1000B00003030303030300000000230026002900BC
:1000C00000000000250028002B0000000000240094
:1000D00027002A00BE01A309630FFA0111241FBEE5
:1000E000CFEFD8E0DEBFCDBF11E0A0E0B1E0E6E7A2
:1000F000F9E202C005900D92A839B107D9F723E0C3
:10010000A8E9B1E001C01D92A537B207E1F710E000
:10011000CAEDD0E004C02297FE010E94FD12C43D4A
:10012000D107C9F70E94E3100C94AE140C940000A0
:10013000109299011092980126E040E051EE60E0A3
:1001400070E08BEC92E00E949F0E60E171E08BEC1E
:1001500092E00E94F10F4AE050E060E070E083EF2F
:1001600091E00E94D90962E084E00E94F91164E004
:1001700070E08CE991E00E946A0A65E070E08CE929
:1001800091E00E94900A84EA91E00C94140280911C
:100190009A0190919B01019690939B0180939A0103
:1001A00084EA91E00E94890280919A0190919B01DA
:1001B0000A9724F010929B0110929A0169E471E071
:1001C0008BEC92E00E94E40F60919A0170919B0188
:1001D0004AE050E08BEC92E00C94A6100F931F9332
:1001E000E0919A01F0919B01319740910C0150915F
:1001F0000D016091980170919901E930F10520F4A9
:10020000EC5CFF4F0C94FB1284EA91E01F910F917C
:100210000C9424028A0124E030E040E051E084EABA
:1002200091E00E9455031F910F91089584EA91E097
:100230001F910F910C94270520E230E084EA91E0B1
:100240001F910F910C94A4069A0141E050E084EABA
:1002500091E01F910F910C94110384EA91E01F919A
:100260000F910C94460720E130E084EA91E01F9161
:100270000F910C94BD0320E130E084EA91E01F91DE
:100280000F910C946D0484EA91E01F910F910C94EE
:10029000C30422E030E084EA91E01F910F910C94B6
:1002A000C205CF93DF93809198019091990120919D
:1002B0000A0130910B01820F931F883823E19207C6
:1002C0002CF4909399018093980104C010929901A5
:1002D000109298018CE991E00E94940A8CE991E0D7
:1002E0000E94E00A81110E94C70083EF91E00E9402
:1002F000090A83EF91E00E94D30925E0269FE001DF
:10030000279FD00D1124C530D1055CF441E050E0A9
:1003100060E070E083EF91E00E94D909C5E0D0E091
:100320000DC0CB3FD10554F042E350E060E070E0F7
:1003300083EF91E00E94D909CAEFD0E080910C01CF
:1003400090910D018C179D0759F04AE050E0BE01D5
:100350008BEC92E00E94A610D0930D01C0930C018B
:100360000E94EE0060910A0170910B01882777FDD1
:100370008095982FDF91CF910C946D11CF93DF93DF
:10038000CDB7DEB765970FB6F894DEBF0FBECDBF11
:1003900041E150E060E170E083EF91E00E94A70945
:1003A00022E530E046E06FE170E08EED91E00E94E2
:1003B0008D0C85E1EEEDF1E0DE01119601900D92DC
:1003C0008A95E1F7BE016F5F7F4F84EA91E00E945A
:1003D000C102CE0101960E94010B8CE991E00E94BE
:1003E0005E0A65960FB6F894DEBF0FBECDBFDF91F3
:1003F000CF91089584EA91E00E9402028EED91E08F
:100400000C94010B25E531E0FC01318320838596B6
:100410000C94010BCF93DF93EC010E940202CE01FA
:10042000DF91CF910C94F210CF93DF93EC01A5965E
:100430006FEFCE010E947B0DCE010E94150BCE0105
:10044000DF91CF910C94990BCF92DF92EF92FF92B4
:100450000F931F93CF93DF936C01CB01BA010E94DE
:10046000A612E601A596892B09F043C0F601058581
:100470001685CE010E94770D0817190719F4F601A9
:1004800016861586E12CF12CCE010E94770DF6011F
:1004900025853685E816F90640F5E216F30619F4C7
:1004A0000FEF20E019C0CE010E94770D8C01169548
:1004B0000795F60185859685080F191FCE010E94C4
:1004C000770DBC01C8010E94921200E020E0E816FE
:1004D000F90611F44FEF01C040E0B701CE010E94D0
:1004E000B50CFFEFEF1AFF0ACFCF2F5F3F4F3687D4
:1004F0002587CE01DF91CF911F910F91FF90EF9053
:10050000DF90CF900C94990B862F40E060E00C9424
:100510006E0DCF93DF93EC01188685960E94770DC0
:10052000E82F492F8A839B831A8619861E861D868B
:1005300063E070E00E94A612788B6F87660F771FCA
:100540007A8B698B2E2F342F37FF02C02D5F3F4FE0
:100550003595279535952795C901880F991F820FE5
:10056000931F9C8B8B8B6FEF70E0CE010E948402F7
:100570006D8B7E8B8F8B988F1C861B86DF91CF9126
:100580000895EF92FF920F931F93CF93DF93EC01A7
:100590007B0185E591E09983888381E090E09D83EC
:1005A0008C831F821E821C861B861E861D86188ACF
:1005B0001F861A8A198A1C8A1B8A8E010B5D1F4F9F
:1005C000C8010E94EA0A85E1F701D80101900D9265
:1005D0008A95E1F7CE01DF91CF911F910F91FF90A6
:1005E000EF900C9489026095653538F4862F880F5A
:1005F000860F482F60E0809512C06A3A48F48BEA73
:10060000860F682F660F680F462F409580E007C061
:100610006A5A862F880F860F682F609540E00C94E9
:100620006E0DEF92FF920F931F93CF93DF93EC0128
:10063000CB01FA01B9010E94A612892B79F58985AF
:100640009A858E0F9F1F8F3F910509F01CF49A87A2
:10065000898702C01A86198600E010E07E0185E2D3
:10066000E80EF11CC7010E94770D0817190768F4FE
:100670006985CE010E94F3029B01AC01B801C7015C
:100680000E94090D0F5F1F4FEDCFC701DF91CF9182
:100690001F910F91FF90EF900C94990BDF91CF91E8
:1006A0001F910F91FF90EF9008957F928F929F92EC
:1006B000AF92BF92CF92DF92EF92FF920F931F9370
:1006C000CF93DF93EC01CB016A01B8010E94A6121F
:1006D000892B09F044C089859A85820F931F8F3F2B
:1006E000910509F01CF49A87898702C01A86198639
:1006F000812C912CE12CF12C8E010B5D1F4FC80138
:100700000E94770D5401AC0CBD1CE816F906B8F434
:100710007984C8010E94770DBC01C4010E94921225
:10072000670DCE010E94F3029B01AC01B701C80125
:100730000E94090D8FEFE81AF80A4501E0CFC801C1
:10074000DF91CF911F910F91FF90EF90DF90CF90AD
:10075000BF90AF909F908F907F900C94990BDF91FA
:10076000CF911F910F91FF90EF90DF90CF90BF90AE
:10077000AF909F908F907F9008959F92AF92BF927D
:10078000CF92DF92EF92FF920F931F93CF93DF935D
:10079000EC01CB01922EBA010E94A612892B09F01E
:1007A00090C06E0185E2C80ED11CC6010E94770D73
:1007B000BC0180E090E00E94BE107E876D87C6017C
:1007C0000E94770DBC0180E090E00E94BE10788B03
:1007D0006F87C6010E94770DBC0180E090E00E9407
:1007E000BE107A8B698BC6010E94770DBC0180E038
:1007F00090E00E94BE107C8B6B8B6FEF70E080E00E
:1008000090E00E94BE10162F89859A8504968F3F2E
:10081000910509F01CF49A87898702C01A86198607
:10082000B92CBB0CA12EAB0CB90CB10EE12CF12CE8
:10083000910EC6010E94770DE816F906A0F58D8588
:100840009E85E816F90621F00196E816F90611F4DE
:10085000612F06C08F859889E816F90659F4692D2D
:10086000CE010E94F3029B01AC01B701C6010E94B8
:10087000090D15C089899A89E816F90611F46A2DBF
:10088000EFCF8B899C89E816F90611F46B2DE8CF20
:1008900000E020E040E0B701C6010E94B50C8FEFF8
:1008A000E81AF80AC6CFC601DF91CF911F910F91C8
:1008B000FF90EF90DF90CF90BF90AF909F900C94FF
:1008C000990BDF91CF911F910F91FF90EF90DF90E7
:1008D000CF90BF90AF909F900895CF92DF92EF920C
:1008E000FF920F931F93CF93DF936C01CB01BA015B
:1008F0000E94A612892BF1F56FEF70E080E090E086
:100900000E94BE10162FC0E0D0E0760185E2E80E0E
:10091000F11CC7010E94770DC817D90700F562E0E6
:1009200070E080E090E00E94BE106130710571F4CB
:100930006C2F660F6C0F610FC6010E94F3029B01C2
:10094000AC01BE01C7010E94090D07C000E020E014
:1009500040E0BE01C7010E94B50C2196DACFC70165
:10096000DF91CF911F910F91FF90EF90DF90CF908B
:100970000C94990BDF91CF911F910F91FF90EF9005
:10098000DF90CF900895AF92BF92CF92DF92EF9217
:10099000FF920F931F93CF93DF936C01CB01BA01AA
:1009A0000E94A612892B09F047C06FEF70E080E02B
:1009B00090E00E94BE10A62E69E070E080E090E01A
:1009C0000E94BE10B62E10E0C0E0D0E0760185E2B5
:1009D000E80EF11CC7010E94770DC817D907F8F47B
:1009E00062E070E080E090E00E94BE10613071052E
:1009F00061F4612F6A0DC6010E94F3029B01AC01F4
:100A0000BE01C7010E94090D07C000E020E040E0E0
:100A1000BE01C7010E94B50C21961B0DDBCFC7019B
:100A2000DF91CF911F910F91FF90EF90DF90CF90CA
:100A3000BF90AF900C94990BDF91CF911F910F91C4
:100A4000FF90EF90DF90CF90BF90AF900895CF923E
:100A5000DF92EF92FF920F93CF93DF93EC01CB01E4
:100A6000BA010E94A612892B09F084C089859A8553
:100A70008F3F910519F014F01A861986CD84DE8413
:100A80007E0185E2E80EF11CC7010E94770DC816B1
:100A9000D90639F489859A8501969A8789871E86B1
:100AA0001D86CF84D888C7010E94770DC816D90645
:100AB00039F489859A8501969A878987188A1F86CD
:100AC000C988DA88C7010E94770DC816D90639F49B
:100AD00089859A8501969A8789871A8A198A6985EC
:100AE000CE010E94F3026D8B7E8B8F8B988FC12C71
:100AF000D12CC7010E94770D2D853E85C816D906D9
:100B000008F5C216D30651F08F859889C816D90604
:100B100029F089899A89C816D90649F42D893E8910
:100B20004F89588DB601C7010E94090D07C000E02A
:100B300020E040E0B601C7010E94B50C8FEFC81A53
:100B4000D80AD7CF2F5F3F4F3E872D878F85988953
:100B50000196988B8F8789899A8901969A8B898BC0
:100B6000C701DF91CF910F91FF90EF90DF90CF9071
:100B70000C94990BDF91CF910F91FF90EF90DF9044
:100B8000CF900895CF92DF92EF92FF920F93CF9381
:100B9000DF93EC01CB017901BA010E94A612892BE7
:100BA00009F0CAC062E370E080E090E00E94BE10ED
:100BB000672B59F480910E0190910F0191958195C9
:100BC000910990930F0180930E0189859A858F3F3B
:100BD000910519F014F01A86198680910E019091F2
:100BE0000F01E89E9001E99E300DF89E300D112412
:100BF00089859A85820F931F9A878987CD84DE84A1
:100C00007E0125E2E20EF11CC7010E94770DC81695
:100C1000D90611F41E861D86CF84D888C7010E948C
:100C2000770DC816D90611F4188A1F86C988DA8884
:100C3000C7010E94770DC816D90611F41A8A198ABD
:100C40008D859E85019631F4C7010E94770D01972D
:100C50009E878D878F859889019631F4C7010E9400
:100C6000770D0197988B8F8789899A89019631F43E
:100C7000C7010E94770D01979A8B898B6985CE01F8
:100C80000E94F3026D8B7E8B8F8B988FC12CD12CA1
:100C9000C7010E94770D2D853E85C816D90670F5CF
:100CA000C216D306B9F02F5F3F4FC216D30691F09C
:100CB0008F859889C816D90669F00196C816D90695
:100CC00049F089899A89C816D90621F00196C81673
:100CD000D90649F42D893E894F89588DB601C7013F
:100CE0000E94090D07C000E020E040E0B601C70106
:100CF0000E94B50C8FEFC81AD80ACACF40910E01D6
:100D000050910F01240F351F3E872D878F859889BD
:100D1000840F951F988B8F8789899A89840F951FD7
:100D20009A8B898BC701DF91CF910F91FF90EF9044
:100D3000DF90CF900C94990BDF91CF910F91FF90A2
:100D4000EF90DF90CF900895BF92CF92DF92EF9215
:100D5000FF920F931F93CF93DF93EC01CB01B22E41
:100D6000BA010E94A6129E012B5D3F4F7901892B8B
:100D700061F0C701DF91CF911F910F91FF90EF902C
:100D8000DF90CF90BF900C94990B8A819B81892B27
:100D900041F460E071E080E090E00E94BE107C874A
:100DA0006B8789859A859C012F5F3F4F3A872987FA
:100DB0004A815B812417350759F41A8619869B836B
:100DC0008A83892B29F4C7010E94770D9B838A832C
:100DD000C12CD12C0A811B81C016D10654F58985FE
:100DE0009A85C816D90651F09C0121503109C216C6
:100DF000D30621F00297C816D90681F401501109D3
:100E00006B85B09E600D1124CE010E94F3029B0100
:100E1000AC01B601C7010E94090D07C000E020E047
:100E200040E0B601C7010E94B50C3FEFC31AD30AD8
:100E3000D1CFCC24CA94C00ECB9CC02C1124D12C71
:100E4000C7010E94770DDB0C0817190708F091CF36
:100E50006C2D6D0D8B85680FCE010E94F3029B01F6
:100E6000AC01B801C7010E94090D0F5F1F4FE8CF09
:100E7000CF93DF93EC0160E071E080E090E00E94AE
:100E8000BE10CE01DF91CF910C94F302CF92DF928E
:100E9000EF92FF920F93CF93DF93EC01CB01BA0156
:100EA0000E94A612892B09F059C0CD84DE847E01F0
:100EB00085E2E80EF11CC7010E94770DC816D9061D
:100EC00059F41E861D866FEF70E0CE010E94380730
:100ED0006D8B7E8B8F8B988FCF84D888C7010E94B3
:100EE000770DC816D90611F4188A1F86C12CD12C8B
:100EF000C7010E94770D2D853E85C816D906E0F4FE
:100F0000C216D30629F08F859889C816D90649F4E8
:100F10002D893E894F89588DB601C7010E94090D60
:100F200007C000E020E040E0B601C7010E94B50C18
:100F30008FEFC81AD80ADCCFC90101969E878D872A
:100F40002E5F3F4F388B2F87C701DF91CF910F91D5
:100F5000FF90EF90DF90CF900C94990BDF91CF91A1
:100F60000F91FF90EF90DF90CF900895613298F449
:100F700020917902243089F460932E02FC0180E3F1
:100F800092E0DC012A2F281B261718F421912D93BB
:100F9000F9CF80E0089581E0089582E0089585ED1D
:100FA0008093BC008091BC0084FDFCCF109279023C
:100FB000089585EC8093BC001092790208951F92E9
:100FC0000F920FB60F9211242F933F934F935F937D
:100FD0006F937F938F939F93AF93BF93EF93FF9301
:100FE0008091B900887F803609F49EC078F58832F8
:100FF00009F45DC090F4803109F456C038F48823B8
:1010000009F4F5C0883009F44FC0F5C0883109F4FF
:101010004EC0803209F45FC0EEC0803409F46AC06B
:1010200058F4803309F457C0883309F0E4C0809342
:101030000C020E94D907DFC0803509F44FC0883503
:1010400009F45DC0883409F0D6C0D3C0883909F4EA
:10105000C4C0A8F4883709F467C038F4883609F4A6
:1010600063C0803709F460C0C6C0883809F4B5C0D1
:10107000803909F45FC0803809F0BDC05BC0803B97
:1010800009F483C038F4803A09F466C0883A09F458
:101090007CC0B1C0803C09F4A4C0883C09F4A1C064
:1010A000883B09F487C0A7C08091780210C0909156
:1010B000510280915002981770F5E091510281E041
:1010C0008E0F80935102F0E0EE5AFD4F80818093A5
:1010D000BB0085EC83C080930C028BC0E091510271
:1010E00081E08E0F809351028091BB00F0E0EE5AB8
:1010F000FD4F808390915102809150026BC0E0912E
:10110000510281E08E0F809351028091BB00F0E08C
:10111000EE5AFD4F80838091770281116AC081E091
:101120008093760284EA5EC083E080937902109215
:101130000D02CFCF80910D02803208F04EC0E091B9
:101140000D0281E08E0F80930D028091BB00F0E0D4
:10115000E25FFD4F8083BDCF0E94D90780910D02D1
:10116000803230F4E0910D02F0E0E25FFD4F10823A
:1011700060910D0270E0E0917202F09173028EE0D6
:1011800092E0099510920D0236C084E080937902B6
:1011900010922F0210922E02E0917402F0917502CB
:1011A000099580912E02811105C081E080932E0265
:1011B00010923002E0912F0281E08E0F80932F0277
:1011C000F0E0E05DFD4F80818093BB0090912F02A5
:1011D00080912E02981708F47CCF85E88093BC009C
:1011E0000AC085EC8093BC001092790204C0109272
:1011F0000C020E94CF07FF91EF91BF91AF919F9199
:101200008F917F916F915F914F913F912F910F90AF
:101210000FBE0F901F9018958091A90290E0209129
:10122000AA02821B910908952091AA028091A90225
:10123000281750F4E22FF0E0E555FD4F808190E053
:101240002F5F2093AA0208958FEF9FEF0895E091FA
:10125000AA028091A902E81730F4F0E0E555FD4FAD
:10126000808190E008958FEF9FEF08950895CF92C9
:10127000DF92EF92FF920F931F93CF93DF937C0146
:10128000CB018A0120918602222389F0EB016B01B8
:10129000C40ED51ECC15DD0569F06991D701ED911D
:1012A000FC910190F081E02DC7010995F3CF642FE7
:1012B0000E94B607C801DF91CF911F910F91FF9057
:1012C000EF90DF90CF900895CF93DF931F92CDB72B
:1012D000DEB76983209186022223D1F02091870214
:1012E000203240F021E030E0FC013383228380E0B3
:1012F00090E015C080918802E82FF0E0E757FD4F9D
:10130000998190838F5F809388028093870205C0C4
:1013100061E0CE0101960E94B60781E090E00F9057
:10132000DF91CF910895FC011382128248EE53E0C1
:1013300060E070E044835583668377838DE591E0B8
:101340009183808308958AE792E00C9493090F9328
:101350001F93CF93DF931F92CDB7DEB78C01862FFB
:10136000F801608371834283538362E049830E9462
:10137000F91162E04981842F0E94F91183E0F8019C
:101380008483158216821782108611861286138630
:101390001486158616861786108A0F90DF91CF91D6
:1013A0001F910F910895FC01618572858385948555
:1013B0000895CF92DF92EF92FF920F931F93FC015B
:1013C000C580D680E780F0848A019B0182E0000F0F
:1013D000111F221F331F8A95D1F783E0C822DD2415
:1013E000EE24FF240C291D292E293F29058316836D
:1013F000278330874187528763877487458756875D
:101400006787708B1F910F91FF90EF90DF90CF90C7
:1014100008951F93CF93DF93EC0188810E94681297
:10142000182F8A810E946812880F991F182B8C81AF
:10143000811709F43FC08C814D815E816F81788571
:10144000E12FFF27E7FDF09524E08202C00111247F
:10145000E82BF92BE759FE4F8081992787FD90955E
:10146000A92FB92F480F591F6A1F7B1F4D835E8319
:101470006F8378871330E9F44D815E816F817885C1
:1014800092E075956795579547959A95D1F7498755
:101490005A876B877C8749895A896B897C894D8BF0
:1014A0005E8B6F8B788F0E943E11698B7A8B8B8B52
:1014B0009C8B1C83DF91CF911F910895FC011082BA
:1014C0001182128213828AE090E0958384831682CF
:1014D000178208950F931F93CF93DF931F92CDB779
:1014E000DEB78C01FC016783862F69830E94681236
:1014F000F80116826981862F0E946812892B19F0E3
:1015000083E0F80186830E943E11F80160837183B5
:10151000828393830F90DF91CF911F910F91089554
:10152000FC01758364830895FF920F931F93CF93FB
:10153000DF93EC018F810E946812FF24F394892BC2
:1015400009F4F12C8E81982F977F9E838695817068
:10155000F81651F00E943E11688379838A839B8339
:101560008E8192E0892721C00E943E110881198155
:101570002A813B81601B710B820B930B0C811D81B7
:1015800020E030E0601771078207930778F08E81C2
:1015900081708F1559F00E943E11688379838A8388
:1015A0009B838E8191E0892788608E838E8183FB67
:1015B000882780F9DF91CF911F910F91FF900895B7
:1015C000FC01868180FD04C083FB882780F9089593
:1015D00080E00895FC0181E08083118213821282F1
:1015E000158214829FEF9683178211861086828758
:1015F000138692E09487858716861786108A118A4B
:101600000895CF93DF93EC0188859985009711F0B9
:101610000E94B3138E8187FD05C060E0DF91CF91FA
:101620000C94F911DF91CF910895CF93DF93EC01E2
:101630008E8187FD07C061E00E94F91160E08E8114
:101640000E94321281E08983DF91CF910895EF9259
:10165000FF920F931F93CF93DF93EC017B0188855B
:101660009985009711F00E94B3139D858A85981380
:1016700003C083E090E002C084E090E08E9D800192
:101680008F9D100D9E9D100D11241D830C83C8018C
:101690000E941B1399878887009741F0A80160E09A
:1016A00070E00E949F14FB82EA8204C01D821C82AB
:1016B0001B821A82DF91CF911F910F91FF90EF90C3
:1016C0000895FC0121E095858285981320E0CB01E7
:1016D00036E0969587953A95E1F7482F4370458710
:1016E000CB0154E0969587955A95E1F7382F3370E2
:1016F0003287CB01969587959695879583708387DA
:10170000862F8370848781E06F3F710511F008F0A8
:1017100080E0808380859185892B51F091E043138F
:1017200090E0921729F062817381CF010C94270B0E
:101730000895CF92DF92EF92FF920F931F93CF9372
:10174000DF93CDB7DEB729970FB6F894DEBF0FBE93
:10175000CDBF8C01DC0118968D919C911997892B36
:1017600009F49AC00E944A11F801C684D784E0881F
:10177000F1886C197D098E099F0962337105810515
:10178000910580F3F894848195819A838983A0855B
:10179000B1857D01EFEFEE1AFE0A8C918987D801A1
:1017A0009C9152960D90BC91A02DF80184899923AB
:1017B00009F42EC09C91982B98879C918095892341
:1017C0008F838F818E8388E08D8358856F814985D3
:1017D0003D812E8189819A81F7015C9347FD252FF8
:1017E0003A952C93262F39F0441F00C000006C93CB
:1017F000000000C0F2CF38E041916C9300000197E7
:1018000061F7F801B38BA28B49873D832E8338C0E3
:101810009C91982B98879C91809589238F838F81A9
:101820008C8388E08B8358856F8149853B812C812F
:1018300089819A81F7015C9347FD252F00C000C084
:101840002C9300C000C000C000C000C06C9300001A
:10185000262F3A9541F0441F000000C000C000C090
:1018600000C000C0E8CF38E0419100C06C9300C0D8
:10187000019709F7F801B38BA28B49873B832C832F
:101880009A83898378940E944A11D8011E966D9399
:101890007D938D939C93519729960FB6F894DEBF54
:1018A0000FBECDBFDF91CF911F910F91FF90EF90B1
:1018B000DF90CF9008951F93CF93DF93EC01162F05
:1018C0008981882331F08E8187FD03C060E00E940A
:1018D000F9111E838981882341F061E0812F0E94E4
:1018E000F91160E0812F0E943212812F90E0FC01FB
:1018F000EE55FF4FE491F0E0EE0FFF1FE054FF4F75
:10190000259134913B8B2A8BFC01E257FF4F849148
:101910008C8BDF91CF911F910895EF92FF920F93DF
:101920001F93CF93DF931F92CDB7DEB77C018B015E
:10193000FC01118217821186108616861786108A7E
:10194000118AB90149830E94610BB801C7010E9445
:10195000270B4981642FC7010F90DF91CF911F9111
:101960000F91FF90EF900C945B0C0F931F93CF930C
:10197000DF93DC0112968D919C911397681779077C
:1019800008F042C017968C911797882361F0489F02
:10199000A0011124452F289F90011124232F089F77
:1019A00080011124012F1D963C911D971A965C9180
:1019B0001A9718968D919C911997FB01351307C0C2
:1019C000EE0FFF1FE60FF71FE80FF91F0AC0EE0F1B
:1019D000FF1FEE0FFF1FE80FF91FEF01C30FD11D0F
:1019E00018821A968C911A97EF01C80FD11D48835F
:1019F0001B968C911B97EF01C80FD11D28831C9655
:101A00008C91E80FF11D0083DF91CF911F910F9111
:101A10000895CF92DF92EF92FF920F931F93CF938F
:101A2000DF93FC01828193816817790708F04DC02C
:101A3000CA01AA27BB27182FC32ED42EE52EFF24B8
:101A4000DC2DC22F0781002361F0809FC00111248B
:101A5000192FC09E60011124DD2D209FC00111248B
:101A6000C92FF5848285A085B185F81208C0CB0105
:101A7000880F991F860F971F8A0F9B1F17C0CB01D6
:101A8000880F991F880F991F8A0F9B1F452F552775
:101A900066277727DC01AF0DB11D002329F0409F99
:101AA00090011124232F01C0242F2C932285DC01C7
:101AB000A20FB11D1C932385DC01A20FB11DDC9385
:101AC0002485FC01E20FF11DC083DF91CF911F91AE
:101AD0000F91FF90EF90DF90CF900895962F50E0F8
:101AE00060E070E0592B682BCB01BA010895FC012E
:101AF000828193810895FF920F931F93CF93DF9379
:101B0000EC01FF24F394F60E2F81F21679F108858B
:101B100019852150B9F06F3F59F430E040E050E0B2
:101B20006FEF7FEF80E090E00E94DC12B9010CC003
:101B30008F2D90E0982F88270197622F70E00E94E8
:101B4000921202C060E070E0F8018C819D81AF01CB
:101B5000401B510B4817590740F44081469FC00174
:101B6000479F900D11249193F0CFFF82DF91CF9189
:101B70001F910F91FF900895FC01818D228D90E0BF
:101B8000805C9F4F821B91098F7399270895FC01F8
:101B9000918D828D981731F0828DE80FF11D858D22
:101BA00090E008958FEF9FEF0895FC01918D828D55
:101BB000981761F0828DDF01A80FB11D5D968C91A1
:101BC000928D9F5F9F73928F90E008958FEF9FEFAC
:101BD000089589E59FE0892B49F080E090E0892B0A
:101BE00029F00E94590F81110C9400000895FC0106
:101BF000848DDF01A80FB11DA35ABF4F2C91848D96
:101C000090E001968F739927848FA689B7892C93CA
:101C1000A089B1898C9180648C93938D848D981365
:101C200006C00288F389E02D80818F7D808308952E
:101C3000CF93DF93EC01888D8823C9F0EA89FB8973
:101C4000808185FD05C0A889B9898C9186FD0FC06A
:101C50000FB607FCF5CF808185FFF2CFA889B9893F
:101C60008C9185FFEDCFCE010E94F70DE7CFDF917C
:101C7000CF910895CF92DF92FF920F931F93CF934E
:101C8000DF931F92CDB7DEB76C0181E0D601589685
:101C90008C9358975B969C915B975C968C915C9724
:101CA000981307C05096ED91FC915197808185FD66
:101CB0002EC0F601038D10E00F5F1F4F0F73112729
:101CC000F02EF601848DF81211C00FB607FCF9CF83
:101CD000D6015096ED91FC915197808185FFF1CF0F
:101CE000C60169830E94F70D6981EBCF838DE80FF0
:101CF000F11DE35AFF4F6083D6015B960C935B970F
:101D00005296ED91FC915397808180620CC0D60170
:101D10005696ED91FC91579760835096ED91FC910A
:101D2000519780818064808381E090E00F90DF9103
:101D3000CF911F910F91FF90DF90CF900895BF92A8
:101D4000CF92DF92EF92FF92CF93DF93EC016A0183
:101D50007B01B22EE889F98982E08083411581EE0A
:101D6000580761057105A1F060E079E08DE390E02E
:101D7000A70196010E94BA12215031094109510967
:101D80005695479537952795211580E1380798F0A6
:101D9000E889F989108260E874E88EE190E0A70193
:101DA00096010E94BA1221503109410951095695F4
:101DB000479537952795EC85FD853083EE85FF8522
:101DC0002083188EEC89FD89B082EA89FB898081A5
:101DD00080618083EA89FB89808188608083EA89C9
:101DE000FB89808180688083EA89FB8980818F7D7F
:101DF0008083DF91CF91FF90EF90DF90CF90BF90E5
:101E000008951F920F920FB60F9211242F938F9364
:101E10009F93EF93FF93E091DB02F091DC028081CE
:101E2000E091E102F091E20282FD12C09081809186
:101E3000E4028F5F8F732091E502821751F0E091E9
:101E4000E402F0E0E553FD4F958F8093E40201C07A
:101E50008081FF91EF919F918F912F910F900FBEF5
:101E60000F901F9018951F920F920FB60F9211248A
:101E70002F933F934F935F936F937F938F939F9392
:101E8000AF93BF93EF93FF938BEC92E00E94F70D1B
:101E9000FF91EF91BF91AF919F918F917F916F9142
:101EA0005F914F913F912F910F900FBE0F901F9018
:101EB00018958BEC92E00E94BC0D21E0892B09F46F
:101EC00020E0822F08951092CE021092CD0288EE6B
:101ED00093E0A0E0B0E08093CF029093D002A09373
:101EE000D102B093D2028DE791E09093CC0280931F
:101EF000CB0285EC90E09093D8028093D70284ECDB
:101F000090E09093DA028093D90280EC90E0909375
:101F1000DC028093DB0281EC90E09093DE02809300
:101F2000DD0282EC90E09093E0028093DF0286EC89
:101F300090E09093E2028093E1021092E40210920A
:101F4000E5021092E6021092E7020895CF92DF9226
:101F5000EF92FF920F931F93CF93DF937C016A015F
:101F6000EB0100E010E00C151D0571F06991D7013F
:101F7000ED91FC910190F081E02DC7010995892B2D
:101F800019F00F5F1F4FEFCFC801DF91CF911F9165
:101F90000F91FF90EF90DF90CF900895611571053C
:101FA00081F0DB010D900020E9F7AD0141505109AE
:101FB000461B570BDC01ED91FC910280F381E02D73
:101FC000099480E090E008950C94CE0FDC01ED912F
:101FD000FC910190F081E02D099469E871E00C9486
:101FE000CE0F0F931F93CF93DF93EC010E94CE0F80
:101FF0008C01CE010E94ED0F800F911FDF91CF91D8
:102000001F910F9108958F929F92AF92BF92CF929E
:10201000DF92EF92FF920F931F93CF93DF93CDB791
:10202000DEB7A1970FB6F894DEBF0FBECDBF7C011F
:10203000C42EE52FCB01D22E19A221E02D1510F0D0
:102040002AE0D22E8E010F5D1F4F8D2C912CA12CDA
:10205000B12C6C2D7E2FA50194010E94BA128C2DFB
:10206000D29E80191124015011098A3014F4805D28
:1020700001C0895CF80180832115310541055105B6
:1020800021F0C22EE32FCA01E4CFB801C7010E949C
:10209000CE0FA1960FB6F894DEBF0FBECDBFDF9175
:1020A000CF911F910F91FF90EF90DF90CF90BF9055
:1020B000AF909F908F900895CF92DF92EF92FF9212
:1020C0000F931F93CF93DF93EC016A017B012115DE
:1020D000310579F4E881F9810190F081E02D642FD8
:1020E000DF91CF911F910F91FF90EF90DF90CF90F4
:1020F00009942A303105E9F477FF1AC06DE20E9495
:10210000E60F8C0144275527BA014C195D096E0969
:102110007F092AE0CE010E940310800F911FDF91FA
:10212000CF911F910F91FF90EF90DF90CF90089586
:102130002AE0B701A601CE01DF91CF911F910F9147
:10214000FF90EF90DF90CF900C9403100F931F93AC
:10215000CF93DF93EC019A01AB01662757FD6095A1
:10216000762F0E945C108C01CE010E94ED0F800F33
:10217000911FDF91CF911F910F910895CF93DF931E
:1021800000D000D0CDB7DEB79B01AC016115710561
:102190008105910569F069833A834B835C830E94D2
:1021A000911429813A814B815C810E94DC1203C029
:1021B00060E070E0CB010F900F900F900F90DF91D7
:1021C000CF91089508950E9495110E94E2100E94F7
:1021D0009800C9EEDDE00E9451012097E1F30E94D2
:1021E000E90DF9CF0C94B3131F920F920FB60F9213
:1021F00011242F933F938F939F93AF93BF9380911D
:10220000690390916A03A0916B03B0916C033091C4
:10221000680323E0230F2D3720F40196A11DB11D83
:1022200005C026E8230F0296A11DB11D2093680367
:102230008093690390936A03A0936B03B0936C033C
:1022400080916D0390916E03A0916F03B091700324
:102250000196A11DB11D80936D0390936E03A09311
:102260006F03B0937003BF91AF919F918F913F9196
:102270002F910F900FBE0F901F9018952FB7F894C5
:102280006091690370916A0380916B0390916C0374
:102290002FBF08953FB7F89480916D0390916E031E
:1022A000A0916F03B091700326B5A89B05C02F3F86
:1022B00019F00196A11DB11D3FBF6627782F892F08
:1022C0009A2F620F711D811D911D42E0660F771FCD
:1022D000881F991F4A95D1F70895CF92DF92EF9208
:1022E000FF92CF93DF936B017C010E944A11EB01B7
:1022F000C114D104E104F10489F00E9491120E94FA
:102300004A116C1B7D0B683E734090F381E0C81A44
:10231000D108E108F108C851DC4FEACFDF91CF9135
:10232000FF90EF90DF90CF900895789484B582600D
:1023300084BD84B5816084BD85B5826085BD85B569
:10234000816085BDEEE6F0E0808181608083E1E818
:10235000F0E0108280818260808380818160808350
:10236000E0E8F0E0808181608083E1EBF0E0808153
:1023700084608083E0EBF0E0808181608083EAE725
:10238000F0E08081846080838081826080838081AE
:10239000816080838081806880831092C10008956D
:1023A000833081F028F4813099F08230A1F00895D3
:1023B0008730A9F08830B9F08430D1F48091800062
:1023C0008F7D03C0809180008F7780938000089577
:1023D00084B58F7702C084B58F7D84BD08958091C8
:1023E000B0008F7703C08091B0008F7D8093B000E4
:1023F0000895CF93DF9390E0FC01E257FF4F2491C3
:10240000FC01EE55FF4F8491882349F190E0880F3D
:10241000991FFC01E653FF4FA591B49180549F4F43
:10242000FC01C591D4919FB7611108C0F8948C91BB
:10243000209582238C93888182230AC0623051F4D4
:10244000F8948C91322F309583238C938881822B42
:10245000888304C0F8948C91822B8C939FBFDF916A
:10246000CF9108950F931F93CF93DF931F92CDB712
:10247000DEB7282F30E0F901E658FF4F8491F901CB
:10248000E257FF4F1491F901EE55FF4F04910023DD
:10249000C9F0882321F069830E94D0116981E02F5F
:1024A000F0E0EE0FFF1FE054FF4FA591B4919FB7EE
:1024B000F8948C91611103C01095812301C0812B88
:1024C0008C939FBF0F90DF91CF911F910F91089533
:1024D000CF93DF93282F30E0F901E658FF4F849126
:1024E000F901E257FF4FD491F901EE55FF4FC49126
:1024F000CC2391F081110E94D011EC2FF0E0EE0F6F
:10250000FF1FEA54FF4FA591B4912C912D2381E038
:1025100090E021F480E002C080E090E0DF91CF9174
:1025200008950895AA1BBB1B51E107C0AA1FBB1F3A
:10253000A617B70710F0A61BB70B881F991F5A954F
:10254000A9F780959095BC01CD01089597FB072EC2
:1025500016F4009407D077FD09D00E94921207FC70
:1025600005D03EF4909581959F4F089570956195A3
:102570007F4F0895A1E21A2EAA1BBB1BFD010DC0BF
:10258000AA1FBB1FEE1FFF1FA217B307E407F50723
:1025900020F0A21BB30BE40BF50B661F771F881FFF
:1025A000991F1A9469F760957095809590959B0195
:1025B000AC01BD01CF010895052E97FB1EF40094D8
:1025C0000E94F31257FD07D00E94BA1207FC03D0F5
:1025D0004EF40C94F31250954095309521953F4F51
:1025E0004F4F5F4F089590958095709561957F4FFF
:1025F0008F4F9F4F0895EE0FFF1F0590F491E02D30
:1026000009940E940C13A59F900DB49F900DA49F58
:10261000800D911D11240895A29FB001B39FC001A8
:10262000A39F700D811D1124911DB29F700D811DFE
:102630001124911D0895CF93DF938230910510F4FA
:1026400082E090E0E0917303F091740320E030E0C9
:10265000A0E0B0E0309739F1408151814817590727
:10266000B8F04817590771F482819381109729F0C7
:1026700013969C938E9312972CC09093740380931F
:10268000730327C02115310531F04217530718F0A5
:10269000A901DB0101C0EF019A01BD01DF01028048
:1026A000F381E02DD7CF21153105F9F0281B390B27
:1026B0002430310580F48A819B816115710521F0F8
:1026C000FB019383828304C090937403809373030C
:1026D000FE01329644C0FE01E20FF31F81939193F5
:1026E00022503109398328833AC0209171033091F7
:1026F0007203232B41F420910201309103013093A6
:102700007203209371032091000130910101211582
:10271000310541F42DB73EB74091040150910501B8
:10272000241B350BE0917103F0917203E217F3075C
:10273000A0F42E1B3F0B2817390778F0AC014E5F31
:102740005F4F2417350748F04E0F5F1F50937203F9
:10275000409371038193919302C0E0E0F0E0CF01D8
:10276000DF91CF910895CF93DF93009709F487C04D
:10277000FC01329713821282C0917303D0917403CB
:10278000209781F420813181280F391F80917103B6
:10279000909172038217930779F5F0937203E09397
:1027A00071036DC0DE0120E030E0AE17BF0750F4CA
:1027B00012964D915C9113979D014115510509F1B8
:1027C000DA01F3CFB383A28340815181840F951F37
:1027D0008A179B0771F48D919C911197840F951F17
:1027E00002969183808312968D919C911397938387
:1027F00082832115310529F4F0937403E093730368
:102800003EC0D9011396FC93EE9312974D915D91C2
:10281000A40FB51FEA17FB0779F480819181840F1B
:10282000951F0296D90111969C938E938281938174
:1028300013969C938E931297E0E0F0E08A819B813F
:10284000009719F0FE01EC01F9CFCE010296288124
:102850003981820F931F20917103309172032817E1
:10286000390769F4309729F41092740310927303B6
:1028700002C013821282D0937203C0937103DF915E
:10288000CF9108958F929F92AF92BF92CF92DF9295
:10289000EF92FF92CF93DF93EC01688179818A8177
:1028A0009B81611571058105910521F464E279ED43
:1028B0008BE597E02DE133EF41E050E00E94DC1220
:1028C00049015A019B01AC01A7EAB1E40E9401133E
:1028D0006B017C01ACEEB4EFA50194010E94A91438
:1028E000C60ED71EE81EF91EF7FE06C081E0C81A04
:1028F000D108E10880E8F80AC882D982EA82FB821E
:10290000C701B6019F77DF91CF91FF90EF90DF90E5
:10291000CF90BF90AF909F908F9008950E944214E7
:10292000089586E091E00E944214089560930601A4
:102930007093070180930801909309010895DC01C9
:1029400001C06D9341505040E0F70895B7FF0C94DB
:1029500001130E940113821B930B089510E0CAED2E
:10296000D0E004C0FE010E94FD122296CC3DD107AA
:06297000C9F7F894FFCF47
:102976000000750380000100000005003200010020
:1029860053696D706C65506F6C6C526F7461746FC7
:1029960072206578616D706C6520666F7220746850
:1029A6006520526F74617279456E636F646572203B
:1029B6006C6962726172792E004D6F6475733A208C
:1029C600000000000002020A02000000006409374D
:1029D600090C0914092709360900FF010001000046
:1029E600FFFF0000010001FF00000000003A0EA6F4
:1029F6000FBC0DD50DC70D180E0D0A006E616E00C9
:082A0600696E66006F76660040
:00000001FF
