:100000000C945E000C9486000C9486000C94860080
:100010000C9486000C9486000C9486000C94860048
:100020000C9486000C9486000C9486000C94860038
:100030000C9486000C9486000C9486000C94860028
:100040000C947A050C9486000C9486000C9486001F
:100050000C9486000C9486000C9486000C94860008
:100060000C9486000C948600000000080002010039
:100070000003040700000000000000000102040863
:100080001020408001020408102001020408102002
:10009000040404040404040402020202020203032E
:1000A0000303030300000000250028002B000000CC
:1000B0000000240027002A00C700140111241FBEDD
:1000C000CFEFD8E0DEBFCDBF11E0A0E0B1E0EAE1C4
:1000D000F1E102C005900D92A431B107D9F721E0FA
:1000E000A4E1B1E001C01D92A13AB207E1F710E02E
:1000F000CAEBD0E004C02297FE010E944E07C83B25
:10010000D107C9F70E9469050C9480080C9400007F
:10011000109215011092140185E591E00E943601BC
:1001200086E191E00C943601609114017091150103
:1001300085E591E00E94FD01609114017091150127
:1001400086E191E00C94B501809114019091150124
:1001500020910A0130910B01820F931F883823E10F
:1001600092072CF4909315018093140104C010920F
:100170001501109214010E94940060910A0170917F
:100180000B01882777FD8095982F0C94E705CF9376
:10019000DF93CDB7DEB765970FB6F894DEBF0FBE1D
:1001A000CDBF22E530E046E060E170E08FE791E00E
:1001B0000E94390485E1EFE7F1E0DE01119601903C
:1001C0000D928A95E1F7BE016F5F7F4F85E591E063
:1001D0000E946701CE0101960E94AD0222E530E047
:1001E00047E06CE070E080E491E00E94390485E132
:1001F000E0E4F1E0DE01119601900D928A95E1F7BD
:10020000BE016F5F7F4F86E191E00E946701CE01E2
:1002100001960E94AD0265960FB6F894DEBF0FBE40
:10022000CDBFDF91CF91089586E191E00E94240136
:1002300080E491E00E94AD0285E591E00E942401F6
:100240008FE791E00C94AD0220E131E0FC013183B5
:10025000208345960C94AD02CF93DF93EC010E946E
:100260002401CE01DF91CF910C947805CF93DF93D9
:10027000EC0165966FEFCE010E942705CE010E942A
:10028000C102CE01DF91CF910C944503862F40E04F
:1002900060E00C941A05CF93DF93EC0118861A8660
:1002A000198682E090E09E878D876FEF70E0CE0127
:1002B0000E944601698B7A8B8B8B9C8BCE01459675
:1002C0000E9423059B838A83DF91CF910895EF924B
:1002D000FF920F931F93CF93DF93EC017B0180E19B
:1002E00091E09983888381E090E09D838C831F82D5
:1002F0001E828BE090E09C878B871E861D86188A65
:100300001F868E010B5E1F4FC8010E94960285E179
:10031000F701D80101900D928A95E1F7CE01DF91A6
:10032000CF911F910F91FF90EF900C944B0160952E
:10033000653538F4862F880F860F482F60E080954A
:1003400012C06A3A48F48BEA860F682F660F680F6E
:10035000462F409580E007C06A5A862F880F860F87
:10036000682F609540E00C941A05BF92CF92DF92FF
:10037000EF92FF920F931F93CF93DF93EC01898548
:100380009A8501968F3F910509F01CF49A87898719
:1003900002C01A861986C12CD12CE12CF12C8E01B9
:1003A0000B5E1F4FC8010E942305E816F906C8F42A
:1003B000B984C8010E942305BC01C6010E94E3065E
:1003C0006B0DCE010E9497019B01AC01B701C801E2
:1003D0000E94B5048FEFE81AF80A80E8C80ED11C15
:1003E000E1CFC801DF91CF911F910F91FF90EF9066
:1003F000DF90CF90BF900C944503CF92DF92EF92A5
:10040000FF920F93CF93DF93EC01CB0164E670E092
:100410000E94F706892B09F081C089859A85049688
:100420008F3F910509F01CF49A87898702C01A86CC
:100430001986CD84DE847E0185E1E80EF11CC701BA
:100440000E94230596958795C816D90651F41E86F5
:100450001D866985CE010E949701698B7A8B8B8BF3
:100460009C8BC12CD12CC7010E9423052D853E8574
:10047000C816D90688F5C216D306E1F1C7010E9455
:10048000230596958795969587952D853E85820FB0
:10049000931FC816D90671F1C7010E9423059695CE
:1004A00087952D853E85820F931FC816D90611F1B9
:1004B000C7010E94230596958795969587959C017F
:1004C000220F331F280F391F8D859E85280F391F56
:1004D000C216D306D9F40EC02F5F3F4F3E872D873B
:1004E000C701DF91CF910F91FF90EF90DF90CF90F8
:1004F0000C94450329893A894B895C89B601C70167
:100500000E94B5048FEFC81AD80AADCF00E020E0F2
:1005100040E0B601C7010E946104F4CFDF91CF91A2
:100520000F91FF90EF90DF90CF900895FC0181E054
:100530008083118213821282158214829FEF968328
:100540001782118610868287138692E094878587AA
:1005500016861786108A118A0895CF93DF93EC01CF
:1005600088859985009711F00E94EA078E8187FDA2
:1005700005C060E0DF91CF910C947306DF91CF91BD
:100580000895CF93DF93EC018E8187FD07C061E072
:100590000E94730660E08E810E94AC0681E0898330
:1005A000DF91CF910895EF92FF920F931F93CF9316
:1005B000DF93EC017B0188859985009711F00E94FB
:1005C000EA079D858A85981303C083E090E002C006
:1005D00084E090E08E9D80018F9D100D9E9D100DFA
:1005E00011241D830C83C8010E94520799878887B4
:1005F000009741F0A80160E070E00E947908FB825A
:10060000EA8204C01D821C821B821A82DF91CF9174
:100610001F910F91FF90EF900895FC0121E09585C7
:100620008285981320E0CB0136E0969587953A9520
:10063000E1F7482F43704587CB0154E096958795A5
:100640005A95E1F7382F33703287CB01969587950D
:100650009695879583708387862F8370848781E042
:100660006F3F710511F008F080E0808380859185EF
:10067000892B51F091E0431390E0921729F06281A9
:100680007381CF010C94D3020895CF92DF92EF9241
:10069000FF920F931F93CF93DF93CDB7DEB72997C8
:1006A0000FB6F894DEBF0FBECDBF8C01DC011896EB
:1006B0008D919C911997892B09F49AC00E94C405C9
:1006C000F801C684D784E088F1886C197D098E0909
:1006D0009F09623371058105910580F3F894848147
:1006E00095819A838983A085B1857D01EFEFEE1A0C
:1006F000FE0A8C918987D8019C9152960D90BC91ED
:10070000A02DF8018489992309F42EC09C91982B7F
:1007100098879C91809589238F838F818E8388E031
:100720008D8358856F8149853D812E8189819A818C
:10073000F7015C9347FD252F3A952C93262F39F02E
:10074000441F00C000006C93000000C0F2CF38E0EE
:1007500041916C930000019761F7F801B38BA28B74
:1007600049873D832E8338C09C91982B98879C9114
:10077000809589238F838F818C8388E08B83588534
:100780006F8149853B812C8189819A81F7015C9336
:1007900047FD252F00C000C02C9300C000C000C042
:1007A00000C000C06C930000262F3A9541F0441F12
:1007B000000000C000C000C000C000C0E8CF38E0AA
:1007C000419100C06C9300C0019709F7F801B38B09
:1007D000A28B49873B832C839A83898378940E94D8
:1007E000C405D8011E966D937D938D939C9351976C
:1007F00029960FB6F894DEBF0FBECDBFDF91CF9123
:100800001F910F91FF90EF90DF90CF9008951F936D
:10081000CF93DF93EC01162F8981882331F08E81ED
:1008200087FD03C060E00E9473061E8389818823D0
:1008300041F061E0812F0E94730660E0812F0E94E9
:10084000AC06812F90E0FC01E057FF4FE491F0E00F
:10085000EE0FFF1FEC55FF4F259134913B8B2A8BF8
:10086000FC01E458FF4F84918C8BDF91CF911F9155
:100870000895EF92FF920F931F93CF93DF931F92F0
:10088000CDB7DEB77C018B01FC0111821782118686
:10089000108616861786108A118AB90149830E942C
:1008A0000D03B801C7010E94D3024981642FC7011B
:1008B0000F90DF91CF911F910F91FF90EF900C94CB
:1008C00007040F931F93CF93DF93DC0112968D9152
:1008D0009C9113976817790708F042C017968C917E
:1008E0001797882361F0489FA0011124452F289F66
:1008F00090011124232F089F80011124012F1D96A0
:100900003C911D971A965C911A9718968D919C911F
:100910001997FB01351307C0EE0FFF1FE60FF71FF6
:10092000E80FF91F0AC0EE0FFF1FEE0FFF1FE80FC1
:10093000F91FEF01C30FD11D18821A968C911A97D7
:10094000EF01C80FD11D48831B968C911B97EF01B7
:10095000C80FD11D28831C968C91E80FF11D0083D0
:10096000DF91CF911F910F910895CF92DF92EF9277
:10097000FF920F931F93CF93DF93FC0182819381AA
:100980006817790708F04DC0CA01AA27BB27182F9E
:10099000C32ED42EE52EFF24DC2DC22F0781002389
:1009A00061F0809FC0011124192FC09E60011124A5
:1009B000DD2D209FC0011124C92FF5848285A085DB
:1009C000B185F81208C0CB01880F991F860F971FB9
:1009D0008A0F9B1F17C0CB01880F991F880F991F83
:1009E0008A0F9B1F452F552766277727DC01AF0D00
:1009F000B11D002329F0409F90011124232F01C035
:100A0000242F2C932285DC01A20FB11D1C9323857A
:100A1000DC01A20FB11DDC932485FC01E20FF11D66
:100A2000C083DF91CF911F910F91FF90EF90DF90E6
:100A3000CF900895962F50E060E070E0592B682B1E
:100A4000CB01BA010895FC01828193810895FF9240
:100A50000F931F93CF93DF93EC01FF24F394F60ED3
:100A60002F81F21679F1088519852150B9F06F3F71
:100A700059F430E040E050E06FEF7FEF80E090E02D
:100A80000E942D07B9010CC08F2D90E0982F882768
:100A90000197622F70E00E94E30602C060E070E000
:100AA000F8018C819D81AF01401B510B48175907FC
:100AB00040F44081469FC001479F900D11249193BF
:100AC000F0CFFF82DF91CF911F910F91FF9008959A
:100AD00008950E940F060E9468050E948800C0E0E9
:100AE000D0E00E94A4002097E1F30E940000F9CF1B
:100AF0000C94EA071F920F920FB60F9211242F93B6
:100B00003F938F939F93AF93BF9380919501909163
:100B10009601A0919701B09198013091940123E042
:100B2000230F2D3720F40196A11DB11D05C026E825
:100B3000230F0296A11DB11D20939401809395016E
:100B400090939601A0939701B09398018091990199
:100B500090919A01A0919B01B0919C010196A11DD9
:100B6000B11D8093990190939A01A0939B01B0933A
:100B70009C01BF91AF919F918F913F912F910F90C9
:100B80000FBE0F901F9018953FB7F8948091990170
:100B900090919A01A0919B01B0919C0126B5A89BD0
:100BA00005C02F3F19F00196A11DB11D3FBF66275B
:100BB000782F892F9A2F620F711D811D911D42E0A0
:100BC000660F771F881F991F4A95D1F70895CF9216
:100BD000DF92EF92FF92CF93DF936B017C010E9433
:100BE000C405EB01C114D104E104F10489F00E94B1
:100BF000E2060E94C4056C1B7D0B683E734090F3B7
:100C000081E0C81AD108E108F108C851DC4FEACFE9
:100C1000DF91CF91FF90EF90DF90CF90089578947F
:100C200084B5826084BD84B5816084BD85B58260F1
:100C300085BD85B5816085BDEEE6F0E0808181608F
:100C40008083E1E8F0E0108280818260808380818F
:100C500081608083E0E8F0E0808181608083E1EB67
:100C6000F0E0808184608083E0EBF0E0808181604F
:100C70008083EAE7F0E08081846080838081826005
:100C800080838081816080838081806880831092EE
:100C9000C1000895833081F028F4813099F08230CA
:100CA000A1F008958730A9F08830B9F08430D1F4EC
:100CB000809180008F7D03C0809180008F7780932A
:100CC0008000089584B58F7702C084B58F7D84BD80
:100CD00008958091B0008F7703C08091B0008F7D20
:100CE0008093B0000895CF93DF9390E0FC01E45827
:100CF000FF4F2491FC01E057FF4F8491882349F175
:100D000090E0880F991FFC01E255FF4FA591B49127
:100D10008C559F4FFC01C591D4919FB7611108C0BC
:100D2000F8948C91209582238C93888182230AC029
:100D3000623051F4F8948C91322F309583238C9348
:100D40008881822B888304C0F8948C91822B8C93A9
:100D50009FBFDF91CF9108950F931F93CF93DF93A0
:100D60001F92CDB7DEB7282F30E0F901E859FF4FC9
:100D70008491F901E458FF4F1491F901E057FF4FB6
:100D800004910023C9F0882321F069830E944A0658
:100D90006981E02FF0E0EE0FFF1FEC55FF4FA591AA
:100DA000B4919FB7F8948C91611103C01095812381
:100DB00001C0812B8C939FBF0F90DF91CF911F912A
:100DC0000F9108950895AA1BBB1B51E107C0AA1FEC
:100DD000BB1FA617B70710F0A61BB70B881F991FDC
:100DE0005A95A9F780959095BC01CD01089597FB80
:100DF000072E16F4009407D077FD09D00E94E30671
:100E000007FC05D03EF4909581959F4F089570950D
:100E100061957F4F0895A1E21A2EAA1BBB1BFD010D
:100E20000DC0AA1FBB1FEE1FFF1FA217B307E407C9
:100E3000F50720F0A21BB30BE40BF50B661F771F21
:100E4000881F991F1A9469F7609570958095909501
:100E50009B01AC01BD01CF010895052E97FB1EF447
:100E600000940E94440757FD07D00E940B0707FC1F
:100E700003D04EF40C94440750954095309521953D
:100E80003F4F4F4F5F4F08959095809570956195B6
:100E90007F4F8F4F9F4F0895EE0FFF1F0590F491E6
:100EA000E02D0994CF93DF938230910510F482E016
:100EB00090E0E0919F01F091A00120E030E0A0E0FF
:100EC000B0E0309739F14081518148175907B8F0A7
:100ED0004817590771F482819381109729F013966E
:100EE0009C938E9312972CC09093A00180939F01A6
:100EF00027C02115310531F04217530718F0A90119
:100F0000DB0101C0EF019A01BD01DF010280F38125
:100F1000E02DD7CF21153105F9F0281B390B2430EE
:100F2000310580F48A819B816115710521F0FB01F7
:100F30009383828304C09093A00180939F01FE015C
:100F4000329644C0FE01E20FF31F81939193225029
:100F50003109398328833AC020919D0130919E0147
:100F6000232B41F4209102013091030130939E0123
:100F700020939D012091000130910101211531053F
:100F800041F42DB73EB74091040150910501241B57
:100F9000350BE0919D01F0919E01E217F307A0F45B
:100FA0002E1B3F0B2817390778F0AC014E5F5F4FBF
:100FB0002417350748F04E0F5F1F50939E01409352
:100FC0009D018193919302C0E0E0F0E0CF01DF91B9
:100FD000CF910895CF93DF93009709F487C0FC0168
:100FE000329713821282C0919F01D091A001209765
:100FF00081F420813181280F391F80919D019091CA
:101000009E018217930779F5F0939E01E0939D016D
:101010006DC0DE0120E030E0AE17BF0750F412963D
:101020004D915C9113979D014115510509F1DA012C
:10103000F3CFB383A28340815181840F951F8A1718
:101040009B0771F48D919C911197840F951F0296C7
:101050009183808312968D919C91139793838283C1
:101060002115310529F4F093A001E0939F013EC0C2
:10107000D9011396FC93EE9312974D915D91A40FB5
:10108000B51FEA17FB0779F480819181840F951FC2
:101090000296D90111969C938E9382819381139627
:1010A0009C938E931297E0E0F0E08A819B810097F9
:1010B00019F0FE01EC01F9CFCE01029628813981A9
:1010C000820F931F20919D0130919E0128173907AF
:1010D00069F4309729F41092A00110929F0102C088
:1010E00013821282D0939E01C0939D01DF91CF9114
:1010F0000895DC0101C06D9341505040E0F7089520
:1011000010E0CAEBD0E004C0FE010E944E07229618
:0A111000CC3BD107C9F7F894FFCFDC
:10111A000000A10180000100000019000000000089
:04112A0024012C016F
:00000001FF
